:100000000C9434000C943E000C943E000C943E0082
:100010000C943E000C943E000C943E000C943E0068
:100020000C943E000C943E000C943E000C943E0058
:100030000C943E000C943E000C943E000C943E0048
:100040000C943E000C943E000C943E000C943E0038
:100050000C943E000C943E000C943E000C943E0028
:100060000C943E000C943E0011241FBECFEFD8E04C
:10007000DEBFCDBF0E9469000C946E000C9400009E
:1000800010E014B91FED15B913B1312F21E032235F
:10009000412F22E042234695512F24E052235695CA
:1000A0005695612F28E0622366956695669521E056
:1000B00062276523632342274523322752273523AE
:1000C000342B362B330F330F04E00AB93BB90895B4
:1000D000FFCF0E9440000E944400FBCFF894FFCF66
:00000001FF
